{
  "contractName": "MediSure",
  "abi": [
    {
      "inputs": [
        {
          "internalType": "uint256",
          "name": "",
          "type": "uint256"
        }
      ],
      "name": "medicines",
      "outputs": [
        {
          "internalType": "string",
          "name": "name",
          "type": "string"
        },
        {
          "internalType": "string",
          "name": "manufacturer",
          "type": "string"
        },
        {
          "internalType": "uint256",
          "name": "batchNumber",
          "type": "uint256"
        },
        {
          "internalType": "bool",
          "name": "isAuthentic",
          "type": "bool"
        }
      ],
      "stateMutability": "view",
      "type": "function",
      "constant": true
    },
    {
      "inputs": [
        {
          "internalType": "uint256",
          "name": "_batchNumber",
          "type": "uint256"
        },
        {
          "internalType": "string",
          "name": "_name",
          "type": "string"
        },
        {
          "internalType": "string",
          "name": "_manufacturer",
          "type": "string"
        }
      ],
      "name": "registerMedicine",
      "outputs": [],
      "stateMutability": "nonpayable",
      "type": "function"
    },
    {
      "inputs": [
        {
          "internalType": "uint256",
          "name": "_batchNumber",
          "type": "uint256"
        }
      ],
      "name": "verifyMedicine",
      "outputs": [
        {
          "internalType": "bool",
          "name": "",
          "type": "bool"
        }
      ],
      "stateMutability": "view",
      "type": "function",
      "constant": true
    }
  ],
  "bytecode": "0x608060405234801561001057600080fd5b50610730806100206000396000f3fe608060405234801561001057600080fd5b50600436106100415760003560e01c80630bb638f014610046578063c85e766d14610076578063f0a4e119146100a9575b600080fd5b610060600480360381019061005b9190610400565b6100c5565b60405161006d91906104ff565b60405180910390f35b610090600480360381019061008b9190610400565b6100f1565b6040516100a0949392919061051a565b60405180910390f35b6100c360048036038101906100be9190610429565b61023e565b005b600080600083815260200190815260200160002060030160009054906101000a900460ff169050919050565b600060205280600052604060002060009150905080600001805461011490610642565b80601f016020809104026020016040519081016040528092919081815260200182805461014090610642565b801561018d5780601f106101625761010080835404028352916020019161018d565b820191906000526020600020905b81548152906001019060200180831161017057829003601f168201915b5050505050908060010180546101a290610642565b80601f01602080910402602001604051908101604052809291908181526020018280546101ce90610642565b801561021b5780601f106101f05761010080835404028352916020019161021b565b820191906000526020600020905b8154815290600101906020018083116101fe57829003601f168201915b5050505050908060020154908060030160009054906101000a900460ff16905084565b60405180608001604052808381526020018281526020018481526020016001151581525060008085815260200190815260200160002060008201518160000190805190602001906102909291906102e0565b5060208201518160010190805190602001906102ad9291906102e0565b506040820151816002015560608201518160030160006101000a81548160ff021916908315150217905550905050505050565b8280546102ec90610642565b90600052602060002090601f01602090048101928261030e5760008555610355565b82601f1061032757805160ff1916838001178555610355565b82800160010185558215610355579182015b82811115610354578251825591602001919060010190610339565b5b5090506103629190610366565b5090565b5b8082111561037f576000816000905550600101610367565b5090565b60006103966103918461059e565b61056d565b9050828152602081018484840111156103ae57600080fd5b6103b9848285610600565b509392505050565b600082601f8301126103d257600080fd5b81356103e2848260208601610383565b91505092915050565b6000813590506103fa816106e3565b92915050565b60006020828403121561041257600080fd5b6000610420848285016103eb565b91505092915050565b60008060006060848603121561043e57600080fd5b600061044c868287016103eb565b935050602084013567ffffffffffffffff81111561046957600080fd5b610475868287016103c1565b925050604084013567ffffffffffffffff81111561049257600080fd5b61049e868287016103c1565b9150509250925092565b6104b1816105ea565b82525050565b60006104c2826105ce565b6104cc81856105d9565b93506104dc81856020860161060f565b6104e5816106d2565b840191505092915050565b6104f9816105f6565b82525050565b600060208201905061051460008301846104a8565b92915050565b6000608082019050818103600083015261053481876104b7565b9050818103602083015261054881866104b7565b905061055760408301856104f0565b61056460608301846104a8565b95945050505050565b6000604051905081810181811067ffffffffffffffff82111715610594576105936106a3565b5b8060405250919050565b600067ffffffffffffffff8211156105b9576105b86106a3565b5b601f19601f8301169050602081019050919050565b600081519050919050565b600082825260208201905092915050565b60008115159050919050565b6000819050919050565b82818337600083830152505050565b60005b8381101561062d578082015181840152602081019050610612565b8381111561063c576000848401525b50505050565b6000600282049050600182168061065a57607f821691505b6020821081141561066e5761066d610674565b5b50919050565b7f4e487b7100000000000000000000000000000000000000000000000000000000600052602260045260246000fd5b7f4e487b7100000000000000000000000000000000000000000000000000000000600052604160045260246000fd5b6000601f19601f8301169050919050565b6106ec816105f6565b81146106f757600080fd5b5056fea2646970667358221220f2e26d1833aa200a2900219b90ef8ba0b76e417d2179d0a5d2db3fa2f9a88eeb64736f6c63430008000033",
  "immutableReferences": {},
  "source": "// SPDX-License-Identifier: MIT\npragma solidity ^0.8.0;\n\ncontract MediSure {\n\n    struct Medicine {\n        string name;\n        string manufacturer;\n        uint256 batchNumber;\n        bool isAuthentic;\n    }\n\n    mapping(uint256 => Medicine) public medicines;\n\n    function registerMedicine(\n        uint256 _batchNumber,\n        string memory _name,\n        string memory _manufacturer\n    ) public {\n        medicines[_batchNumber] = Medicine(\n            _name,\n            _manufacturer,\n            _batchNumber,\n            true\n        );\n    }\n\n    function verifyMedicine(uint256 _batchNumber)\n        public\n        view\n        returns (bool)\n    {\n        return medicines[_batchNumber].isAuthentic;\n    }\n}",
  "sourcePath": "/Users/nikhiltiwari/Desktop/MediSure/contracts/MediSure.sol",
  "compiler": {
    "name": "solc",
    "version": "0.8.0+commit.c7dfd78e.Emscripten.clang"
  },
  "schemaVersion": "3.4.16",
  "updatedAt": "2026-02-09T23:31:13.279Z",
  "networkType": "ethereum",
  "devdoc": {
    "kind": "dev",
    "methods": {},
    "version": 1
  },
  "userdoc": {
    "kind": "user",
    "methods": {},
    "version": 1
  }
}